{
  "contractName": "Memenifty",
  "abi": [
    {
      "inputs": [],
      "stateMutability": "nonpayable",
      "type": "constructor"
    },
    {
      "anonymous": false,
      "inputs": [
        {
          "indexed": true,
          "internalType": "address",
          "name": "owner",
          "type": "address"
        },
        {
          "indexed": true,
          "internalType": "address",
          "name": "approved",
          "type": "address"
        },
        {
          "indexed": true,
          "internalType": "uint256",
          "name": "tokenId",
          "type": "uint256"
        }
      ],
      "name": "Approval",
      "type": "event"
    },
    {
      "anonymous": false,
      "inputs": [
        {
          "indexed": true,
          "internalType": "address",
          "name": "owner",
          "type": "address"
        },
        {
          "indexed": true,
          "internalType": "address",
          "name": "operator",
          "type": "address"
        },
        {
          "indexed": false,
          "internalType": "bool",
          "name": "approved",
          "type": "bool"
        }
      ],
      "name": "ApprovalForAll",
      "type": "event"
    },
    {
      "anonymous": false,
      "inputs": [
        {
          "indexed": true,
          "internalType": "address",
          "name": "previousOwner",
          "type": "address"
        },
        {
          "indexed": true,
          "internalType": "address",
          "name": "newOwner",
          "type": "address"
        }
      ],
      "name": "OwnershipTransferred",
      "type": "event"
    },
    {
      "anonymous": false,
      "inputs": [
        {
          "indexed": true,
          "internalType": "address",
          "name": "from",
          "type": "address"
        },
        {
          "indexed": true,
          "internalType": "address",
          "name": "to",
          "type": "address"
        },
        {
          "indexed": true,
          "internalType": "uint256",
          "name": "tokenId",
          "type": "uint256"
        }
      ],
      "name": "Transfer",
      "type": "event"
    },
    {
      "inputs": [
        {
          "internalType": "address",
          "name": "to",
          "type": "address"
        },
        {
          "internalType": "uint256",
          "name": "tokenId",
          "type": "uint256"
        }
      ],
      "name": "approve",
      "outputs": [],
      "stateMutability": "nonpayable",
      "type": "function"
    },
    {
      "inputs": [
        {
          "internalType": "address",
          "name": "owner",
          "type": "address"
        }
      ],
      "name": "balanceOf",
      "outputs": [
        {
          "internalType": "uint256",
          "name": "",
          "type": "uint256"
        }
      ],
      "stateMutability": "view",
      "type": "function",
      "constant": true
    },
    {
      "inputs": [
        {
          "internalType": "uint256",
          "name": "tokenId",
          "type": "uint256"
        }
      ],
      "name": "getApproved",
      "outputs": [
        {
          "internalType": "address",
          "name": "",
          "type": "address"
        }
      ],
      "stateMutability": "view",
      "type": "function",
      "constant": true
    },
    {
      "inputs": [
        {
          "internalType": "address",
          "name": "owner",
          "type": "address"
        },
        {
          "internalType": "address",
          "name": "operator",
          "type": "address"
        }
      ],
      "name": "isApprovedForAll",
      "outputs": [
        {
          "internalType": "bool",
          "name": "",
          "type": "bool"
        }
      ],
      "stateMutability": "view",
      "type": "function",
      "constant": true
    },
    {
      "inputs": [],
      "name": "name",
      "outputs": [
        {
          "internalType": "string",
          "name": "",
          "type": "string"
        }
      ],
      "stateMutability": "view",
      "type": "function",
      "constant": true
    },
    {
      "inputs": [],
      "name": "owner",
      "outputs": [
        {
          "internalType": "address",
          "name": "",
          "type": "address"
        }
      ],
      "stateMutability": "view",
      "type": "function",
      "constant": true
    },
    {
      "inputs": [
        {
          "internalType": "uint256",
          "name": "tokenId",
          "type": "uint256"
        }
      ],
      "name": "ownerOf",
      "outputs": [
        {
          "internalType": "address",
          "name": "",
          "type": "address"
        }
      ],
      "stateMutability": "view",
      "type": "function",
      "constant": true
    },
    {
      "inputs": [],
      "name": "renounceOwnership",
      "outputs": [],
      "stateMutability": "nonpayable",
      "type": "function"
    },
    {
      "inputs": [
        {
          "internalType": "address",
          "name": "from",
          "type": "address"
        },
        {
          "internalType": "address",
          "name": "to",
          "type": "address"
        },
        {
          "internalType": "uint256",
          "name": "tokenId",
          "type": "uint256"
        }
      ],
      "name": "safeTransferFrom",
      "outputs": [],
      "stateMutability": "nonpayable",
      "type": "function"
    },
    {
      "inputs": [
        {
          "internalType": "address",
          "name": "from",
          "type": "address"
        },
        {
          "internalType": "address",
          "name": "to",
          "type": "address"
        },
        {
          "internalType": "uint256",
          "name": "tokenId",
          "type": "uint256"
        },
        {
          "internalType": "bytes",
          "name": "_data",
          "type": "bytes"
        }
      ],
      "name": "safeTransferFrom",
      "outputs": [],
      "stateMutability": "nonpayable",
      "type": "function"
    },
    {
      "inputs": [
        {
          "internalType": "address",
          "name": "operator",
          "type": "address"
        },
        {
          "internalType": "bool",
          "name": "approved",
          "type": "bool"
        }
      ],
      "name": "setApprovalForAll",
      "outputs": [],
      "stateMutability": "nonpayable",
      "type": "function"
    },
    {
      "inputs": [
        {
          "internalType": "bytes4",
          "name": "interfaceId",
          "type": "bytes4"
        }
      ],
      "name": "supportsInterface",
      "outputs": [
        {
          "internalType": "bool",
          "name": "",
          "type": "bool"
        }
      ],
      "stateMutability": "view",
      "type": "function",
      "constant": true
    },
    {
      "inputs": [],
      "name": "symbol",
      "outputs": [
        {
          "internalType": "string",
          "name": "",
          "type": "string"
        }
      ],
      "stateMutability": "view",
      "type": "function",
      "constant": true
    },
    {
      "inputs": [
        {
          "internalType": "uint256",
          "name": "tokenId",
          "type": "uint256"
        }
      ],
      "name": "tokenURI",
      "outputs": [
        {
          "internalType": "string",
          "name": "",
          "type": "string"
        }
      ],
      "stateMutability": "view",
      "type": "function",
      "constant": true
    },
    {
      "inputs": [
        {
          "internalType": "address",
          "name": "from",
          "type": "address"
        },
        {
          "internalType": "address",
          "name": "to",
          "type": "address"
        },
        {
          "internalType": "uint256",
          "name": "tokenId",
          "type": "uint256"
        }
      ],
      "name": "transferFrom",
      "outputs": [],
      "stateMutability": "nonpayable",
      "type": "function"
    },
    {
      "inputs": [
        {
          "internalType": "address",
          "name": "newOwner",
          "type": "address"
        }
      ],
      "name": "transferOwnership",
      "outputs": [],
      "stateMutability": "nonpayable",
      "type": "function"
    },
    {
      "inputs": [
        {
          "internalType": "address",
          "name": "_recipient",
          "type": "address"
        },
        {
          "internalType": "string",
          "name": "_hash",
          "type": "string"
        }
      ],
      "name": "mintMeme",
      "outputs": [
        {
          "internalType": "uint256",
          "name": "",
          "type": "uint256"
        }
      ],
      "stateMutability": "nonpayable",
      "type": "function"
    }
  ],
  "bytecode": "0x60806040523480156200001157600080fd5b506040518060400160405280600481526020017f4d656d65000000000000000000000000000000000000000000000000000000008152506040518060400160405280600481526020017f4d454d4500000000000000000000000000000000000000000000000000000000815250816000908051906020019062000096929190620001a6565b508060019080519060200190620000af929190620001a6565b505050620000d2620000c6620000d860201b60201c565b620000e060201b60201c565b620002bb565b600033905090565b6000600660009054906101000a900473ffffffffffffffffffffffffffffffffffffffff16905081600660006101000a81548173ffffffffffffffffffffffffffffffffffffffff021916908373ffffffffffffffffffffffffffffffffffffffff1602179055508173ffffffffffffffffffffffffffffffffffffffff168173ffffffffffffffffffffffffffffffffffffffff167f8be0079c531659141344cd1fd0a4f28419497f9722a3daafe3b4186f6b6457e060405160405180910390a35050565b828054620001b49062000256565b90600052602060002090601f016020900481019282620001d8576000855562000224565b82601f10620001f357805160ff191683800117855562000224565b8280016001018555821562000224579182015b828111156200022357825182559160200191906001019062000206565b5b50905062000233919062000237565b5090565b5b808211156200025257600081600090555060010162000238565b5090565b600060028204905060018216806200026f57607f821691505b602082108114156200028657620002856200028c565b5b50919050565b7f4e487b7100000000000000000000000000000000000000000000000000000000600052602260045260246000fd5b612d6980620002cb6000396000f3fe608060405234801561001057600080fd5b506004361061010b5760003560e01c806370a08231116100a2578063a22cb46511610071578063a22cb465146102b8578063b88d4fde146102d4578063c87b56dd146102f0578063e985e9c514610320578063f2fde38b146103505761010b565b806370a0823114610242578063715018a6146102725780638da5cb5b1461027c57806395d89b411461029a5761010b565b806323b872dd116100de57806323b872dd146101aa57806342842e0e146101c65780635aa9e7bd146101e25780636352211e146102125761010b565b806301ffc9a71461011057806306fdde0314610140578063081812fc1461015e578063095ea7b31461018e575b600080fd5b61012a60048036038101906101259190611dd6565b61036c565b60405161013791906121ff565b60405180910390f35b61014861044e565b604051610155919061221a565b60405180910390f35b61017860048036038101906101739190611e30565b6104e0565b6040516101859190612198565b60405180910390f35b6101a860048036038101906101a39190611d96565b610565565b005b6101c460048036038101906101bf9190611c24565b61067d565b005b6101e060048036038101906101db9190611c24565b6106dd565b005b6101fc60048036038101906101f79190611d3a565b6106fd565b604051610209919061243c565b60405180910390f35b61022c60048036038101906102279190611e30565b610825565b6040516102399190612198565b60405180910390f35b61025c60048036038101906102579190611bb7565b6108d7565b604051610269919061243c565b60405180910390f35b61027a61098f565b005b610284610a17565b6040516102919190612198565b60405180910390f35b6102a2610a41565b6040516102af919061221a565b60405180910390f35b6102d260048036038101906102cd9190611cfa565b610ad3565b005b6102ee60048036038101906102e99190611c77565b610c54565b005b61030a60048036038101906103059190611e30565b610cb6565b604051610317919061221a565b60405180910390f35b61033a60048036038101906103359190611be4565b610d5d565b60405161034791906121ff565b60405180910390f35b61036a60048036038101906103659190611bb7565b610df1565b005b60007f80ac58cd000000000000000000000000000000000000000000000000000000007bffffffffffffffffffffffffffffffffffffffffffffffffffffffff1916827bffffffffffffffffffffffffffffffffffffffffffffffffffffffff1916148061043757507f5b5e139f000000000000000000000000000000000000000000000000000000007bffffffffffffffffffffffffffffffffffffffffffffffffffffffff1916827bffffffffffffffffffffffffffffffffffffffffffffffffffffffff1916145b80610447575061044682610ee9565b5b9050919050565b60606000805461045d90612692565b80601f016020809104026020016040519081016040528092919081815260200182805461048990612692565b80156104d65780601f106104ab576101008083540402835291602001916104d6565b820191906000526020600020905b8154815290600101906020018083116104b957829003601f168201915b5050505050905090565b60006104eb82610f53565b61052a576040517f08c379a00000000000000000000000000000000000000000000000000000000081526004016105219061237c565b60405180910390fd5b6004600083815260200190815260200160002060009054906101000a900473ffffffffffffffffffffffffffffffffffffffff169050919050565b600061057082610825565b90508073ffffffffffffffffffffffffffffffffffffffff168373ffffffffffffffffffffffffffffffffffffffff1614156105e1576040517f08c379a00000000000000000000000000000000000000000000000000000000081526004016105d8906123fc565b60405180910390fd5b8073ffffffffffffffffffffffffffffffffffffffff16610600610fbf565b73ffffffffffffffffffffffffffffffffffffffff16148061062f575061062e81610629610fbf565b610d5d565b5b61066e576040517f08c379a0000000000000000000000000000000000000000000000000000000008152600401610665906122fc565b60405180910390fd5b6106788383610fc7565b505050565b61068e610688610fbf565b82611080565b6106cd576040517f08c379a00000000000000000000000000000000000000000000000000000000081526004016106c49061241c565b60405180910390fd5b6106d883838361115e565b505050565b6106f883838360405180602001604052806000815250610c54565b505050565b6000610707610fbf565b73ffffffffffffffffffffffffffffffffffffffff16610725610a17565b73ffffffffffffffffffffffffffffffffffffffff161461077b576040517f08c379a00000000000000000000000000000000000000000000000000000000081526004016107729061239c565b60405180910390fd5b600160088360405161078d919061215d565b908152602001604051809103902060009054906101000a900460ff1660ff1614156107b757600080fd5b60016008836040516107c9919061215d565b908152602001604051809103902060006101000a81548160ff021916908360ff1602179055506107f960076113ba565b600061080560076113d0565b905061081184826113de565b61081a81610cb6565b508091505092915050565b6000806002600084815260200190815260200160002060009054906101000a900473ffffffffffffffffffffffffffffffffffffffff169050600073ffffffffffffffffffffffffffffffffffffffff168173ffffffffffffffffffffffffffffffffffffffff1614156108ce576040517f08c379a00000000000000000000000000000000000000000000000000000000081526004016108c59061233c565b60405180910390fd5b80915050919050565b60008073ffffffffffffffffffffffffffffffffffffffff168273ffffffffffffffffffffffffffffffffffffffff161415610948576040517f08c379a000000000000000000000000000000000000000000000000000000000815260040161093f9061231c565b60405180910390fd5b600360008373ffffffffffffffffffffffffffffffffffffffff1673ffffffffffffffffffffffffffffffffffffffff168152602001908152602001600020549050919050565b610997610fbf565b73ffffffffffffffffffffffffffffffffffffffff166109b5610a17565b73ffffffffffffffffffffffffffffffffffffffff1614610a0b576040517f08c379a0000000000000000000000000000000000000000000000000000000008152600401610a029061239c565b60405180910390fd5b610a1560006113fc565b565b6000600660009054906101000a900473ffffffffffffffffffffffffffffffffffffffff16905090565b606060018054610a5090612692565b80601f0160208091040260200160405190810160405280929190818152602001828054610a7c90612692565b8015610ac95780601f10610a9e57610100808354040283529160200191610ac9565b820191906000526020600020905b815481529060010190602001808311610aac57829003601f168201915b5050505050905090565b610adb610fbf565b73ffffffffffffffffffffffffffffffffffffffff168273ffffffffffffffffffffffffffffffffffffffff161415610b49576040517f08c379a0000000000000000000000000000000000000000000000000000000008152600401610b40906122bc565b60405180910390fd5b8060056000610b56610fbf565b73ffffffffffffffffffffffffffffffffffffffff1673ffffffffffffffffffffffffffffffffffffffff16815260200190815260200160002060008473ffffffffffffffffffffffffffffffffffffffff1673ffffffffffffffffffffffffffffffffffffffff16815260200190815260200160002060006101000a81548160ff0219169083151502179055508173ffffffffffffffffffffffffffffffffffffffff16610c03610fbf565b73ffffffffffffffffffffffffffffffffffffffff167f17307eab39ab6107e8899845ad3d59bd9653f200f220920489ca2b5937696c3183604051610c4891906121ff565b60405180910390a35050565b610c65610c5f610fbf565b83611080565b610ca4576040517f08c379a0000000000000000000000000000000000000000000000000000000008152600401610c9b9061241c565b60405180910390fd5b610cb0848484846114c2565b50505050565b6060610cc182610f53565b610d00576040517f08c379a0000000000000000000000000000000000000000000000000000000008152600401610cf7906123dc565b60405180910390fd5b6000610d0a61151e565b90506000815111610d2a5760405180602001604052806000815250610d55565b80610d3484611535565b604051602001610d45929190612174565b6040516020818303038152906040525b915050919050565b6000600560008473ffffffffffffffffffffffffffffffffffffffff1673ffffffffffffffffffffffffffffffffffffffff16815260200190815260200160002060008373ffffffffffffffffffffffffffffffffffffffff1673ffffffffffffffffffffffffffffffffffffffff16815260200190815260200160002060009054906101000a900460ff16905092915050565b610df9610fbf565b73ffffffffffffffffffffffffffffffffffffffff16610e17610a17565b73ffffffffffffffffffffffffffffffffffffffff1614610e6d576040517f08c379a0000000000000000000000000000000000000000000000000000000008152600401610e649061239c565b60405180910390fd5b600073ffffffffffffffffffffffffffffffffffffffff168173ffffffffffffffffffffffffffffffffffffffff161415610edd576040517f08c379a0000000000000000000000000000000000000000000000000000000008152600401610ed49061225c565b60405180910390fd5b610ee6816113fc565b50565b60007f01ffc9a7000000000000000000000000000000000000000000000000000000007bffffffffffffffffffffffffffffffffffffffffffffffffffffffff1916827bffffffffffffffffffffffffffffffffffffffffffffffffffffffff1916149050919050565b60008073ffffffffffffffffffffffffffffffffffffffff166002600084815260200190815260200160002060009054906101000a900473ffffffffffffffffffffffffffffffffffffffff1673ffffffffffffffffffffffffffffffffffffffff1614159050919050565b600033905090565b816004600083815260200190815260200160002060006101000a81548173ffffffffffffffffffffffffffffffffffffffff021916908373ffffffffffffffffffffffffffffffffffffffff160217905550808273ffffffffffffffffffffffffffffffffffffffff1661103a83610825565b73ffffffffffffffffffffffffffffffffffffffff167f8c5be1e5ebec7d5bd14f71427d1e84f3dd0314c0f7b2291e5b200ac8c7c3b92560405160405180910390a45050565b600061108b82610f53565b6110ca576040517f08c379a00000000000000000000000000000000000000000000000000000000081526004016110c1906122dc565b60405180910390fd5b60006110d583610825565b90508073ffffffffffffffffffffffffffffffffffffffff168473ffffffffffffffffffffffffffffffffffffffff16148061114457508373ffffffffffffffffffffffffffffffffffffffff1661112c846104e0565b73ffffffffffffffffffffffffffffffffffffffff16145b8061115557506111548185610d5d565b5b91505092915050565b8273ffffffffffffffffffffffffffffffffffffffff1661117e82610825565b73ffffffffffffffffffffffffffffffffffffffff16146111d4576040517f08c379a00000000000000000000000000000000000000000000000000000000081526004016111cb906123bc565b60405180910390fd5b600073ffffffffffffffffffffffffffffffffffffffff168273ffffffffffffffffffffffffffffffffffffffff161415611244576040517f08c379a000000000000000000000000000000000000000000000000000000000815260040161123b9061229c565b60405180910390fd5b61124f838383611696565b61125a600082610fc7565b6001600360008573ffffffffffffffffffffffffffffffffffffffff1673ffffffffffffffffffffffffffffffffffffffff16815260200190815260200160002060008282546112aa91906125a8565b925050819055506001600360008473ffffffffffffffffffffffffffffffffffffffff1673ffffffffffffffffffffffffffffffffffffffff16815260200190815260200160002060008282546113019190612521565b92505081905550816002600083815260200190815260200160002060006101000a81548173ffffffffffffffffffffffffffffffffffffffff021916908373ffffffffffffffffffffffffffffffffffffffff160217905550808273ffffffffffffffffffffffffffffffffffffffff168473ffffffffffffffffffffffffffffffffffffffff167fddf252ad1be2c89b69c2b068fc378daa952ba7f163c4a11628f55a4df523b3ef60405160405180910390a4505050565b6001816000016000828254019250508190555050565b600081600001549050919050565b6113f882826040518060200160405280600081525061169b565b5050565b6000600660009054906101000a900473ffffffffffffffffffffffffffffffffffffffff16905081600660006101000a81548173ffffffffffffffffffffffffffffffffffffffff021916908373ffffffffffffffffffffffffffffffffffffffff1602179055508173ffffffffffffffffffffffffffffffffffffffff168173ffffffffffffffffffffffffffffffffffffffff167f8be0079c531659141344cd1fd0a4f28419497f9722a3daafe3b4186f6b6457e060405160405180910390a35050565b6114cd84848461115e565b6114d9848484846116f6565b611518576040517f08c379a000000000000000000000000000000000000000000000000000000000815260040161150f9061223c565b60405180910390fd5b50505050565b606060405180602001604052806000815250905090565b6060600082141561157d576040518060400160405280600181526020017f30000000000000000000000000000000000000000000000000000000000000008152509050611691565b600082905060005b600082146115af578080611598906126f5565b915050600a826115a89190612577565b9150611585565b60008167ffffffffffffffff8111156115cb576115ca61282b565b5b6040519080825280601f01601f1916602001820160405280156115fd5781602001600182028036833780820191505090505b5090505b6000851461168a5760018261161691906125a8565b9150600a85611625919061273e565b60306116319190612521565b60f81b818381518110611647576116466127fc565b5b60200101907effffffffffffffffffffffffffffffffffffffffffffffffffffffffffffff1916908160001a905350600a856116839190612577565b9450611601565b8093505050505b919050565b505050565b6116a5838361188d565b6116b260008484846116f6565b6116f1576040517f08c379a00000000000000000000000000000000000000000000000000000000081526004016116e89061223c565b60405180910390fd5b505050565b60006117178473ffffffffffffffffffffffffffffffffffffffff16611a5b565b15611880578373ffffffffffffffffffffffffffffffffffffffff1663150b7a02611740610fbf565b8786866040518563ffffffff1660e01b815260040161176294939291906121b3565b602060405180830381600087803b15801561177c57600080fd5b505af19250505080156117ad57506040513d601f19601f820116820180604052508101906117aa9190611e03565b60015b611830573d80600081146117dd576040519150601f19603f3d011682016040523d82523d6000602084013e6117e2565b606091505b50600081511415611828576040517f08c379a000000000000000000000000000000000000000000000000000000000815260040161181f9061223c565b60405180910390fd5b805181602001fd5b63150b7a0260e01b7bffffffffffffffffffffffffffffffffffffffffffffffffffffffff1916817bffffffffffffffffffffffffffffffffffffffffffffffffffffffff191614915050611885565b600190505b949350505050565b600073ffffffffffffffffffffffffffffffffffffffff168273ffffffffffffffffffffffffffffffffffffffff1614156118fd576040517f08c379a00000000000000000000000000000000000000000000000000000000081526004016118f49061235c565b60405180910390fd5b61190681610f53565b15611946576040517f08c379a000000000000000000000000000000000000000000000000000000000815260040161193d9061227c565b60405180910390fd5b61195260008383611696565b6001600360008473ffffffffffffffffffffffffffffffffffffffff1673ffffffffffffffffffffffffffffffffffffffff16815260200190815260200160002060008282546119a29190612521565b92505081905550816002600083815260200190815260200160002060006101000a81548173ffffffffffffffffffffffffffffffffffffffff021916908373ffffffffffffffffffffffffffffffffffffffff160217905550808273ffffffffffffffffffffffffffffffffffffffff16600073ffffffffffffffffffffffffffffffffffffffff167fddf252ad1be2c89b69c2b068fc378daa952ba7f163c4a11628f55a4df523b3ef60405160405180910390a45050565b600080823b905060008111915050919050565b6000611a81611a7c8461247c565b612457565b905082815260208101848484011115611a9d57611a9c61285f565b5b611aa8848285612650565b509392505050565b6000611ac3611abe846124ad565b612457565b905082815260208101848484011115611adf57611ade61285f565b5b611aea848285612650565b509392505050565b600081359050611b0181612cd7565b92915050565b600081359050611b1681612cee565b92915050565b600081359050611b2b81612d05565b92915050565b600081519050611b4081612d05565b92915050565b600082601f830112611b5b57611b5a61285a565b5b8135611b6b848260208601611a6e565b91505092915050565b600082601f830112611b8957611b8861285a565b5b8135611b99848260208601611ab0565b91505092915050565b600081359050611bb181612d1c565b92915050565b600060208284031215611bcd57611bcc612869565b5b6000611bdb84828501611af2565b91505092915050565b60008060408385031215611bfb57611bfa612869565b5b6000611c0985828601611af2565b9250506020611c1a85828601611af2565b9150509250929050565b600080600060608486031215611c3d57611c3c612869565b5b6000611c4b86828701611af2565b9350506020611c5c86828701611af2565b9250506040611c6d86828701611ba2565b9150509250925092565b60008060008060808587031215611c9157611c90612869565b5b6000611c9f87828801611af2565b9450506020611cb087828801611af2565b9350506040611cc187828801611ba2565b925050606085013567ffffffffffffffff811115611ce257611ce1612864565b5b611cee87828801611b46565b91505092959194509250565b60008060408385031215611d1157611d10612869565b5b6000611d1f85828601611af2565b9250506020611d3085828601611b07565b9150509250929050565b60008060408385031215611d5157611d50612869565b5b6000611d5f85828601611af2565b925050602083013567ffffffffffffffff811115611d8057611d7f612864565b5b611d8c85828601611b74565b9150509250929050565b60008060408385031215611dad57611dac612869565b5b6000611dbb85828601611af2565b9250506020611dcc85828601611ba2565b9150509250929050565b600060208284031215611dec57611deb612869565b5b6000611dfa84828501611b1c565b91505092915050565b600060208284031215611e1957611e18612869565b5b6000611e2784828501611b31565b91505092915050565b600060208284031215611e4657611e45612869565b5b6000611e5484828501611ba2565b91505092915050565b611e66816125dc565b82525050565b611e75816125ee565b82525050565b6000611e86826124de565b611e9081856124f4565b9350611ea081856020860161265f565b611ea98161286e565b840191505092915050565b6000611ebf826124e9565b611ec98185612505565b9350611ed981856020860161265f565b611ee28161286e565b840191505092915050565b6000611ef8826124e9565b611f028185612516565b9350611f1281856020860161265f565b80840191505092915050565b6000611f2b603283612505565b9150611f368261287f565b604082019050919050565b6000611f4e602683612505565b9150611f59826128ce565b604082019050919050565b6000611f71601c83612505565b9150611f7c8261291d565b602082019050919050565b6000611f94602483612505565b9150611f9f82612946565b604082019050919050565b6000611fb7601983612505565b9150611fc282612995565b602082019050919050565b6000611fda602c83612505565b9150611fe5826129be565b604082019050919050565b6000611ffd603883612505565b915061200882612a0d565b604082019050919050565b6000612020602a83612505565b915061202b82612a5c565b604082019050919050565b6000612043602983612505565b915061204e82612aab565b604082019050919050565b6000612066602083612505565b915061207182612afa565b602082019050919050565b6000612089602c83612505565b915061209482612b23565b604082019050919050565b60006120ac602083612505565b91506120b782612b72565b602082019050919050565b60006120cf602983612505565b91506120da82612b9b565b604082019050919050565b60006120f2602f83612505565b91506120fd82612bea565b604082019050919050565b6000612115602183612505565b915061212082612c39565b604082019050919050565b6000612138603183612505565b915061214382612c88565b604082019050919050565b61215781612646565b82525050565b60006121698284611eed565b915081905092915050565b60006121808285611eed565b915061218c8284611eed565b91508190509392505050565b60006020820190506121ad6000830184611e5d565b92915050565b60006080820190506121c86000830187611e5d565b6121d56020830186611e5d565b6121e2604083018561214e565b81810360608301526121f48184611e7b565b905095945050505050565b60006020820190506122146000830184611e6c565b92915050565b600060208201905081810360008301526122348184611eb4565b905092915050565b6000602082019050818103600083015261225581611f1e565b9050919050565b6000602082019050818103600083015261227581611f41565b9050919050565b6000602082019050818103600083015261229581611f64565b9050919050565b600060208201905081810360008301526122b581611f87565b9050919050565b600060208201905081810360008301526122d581611faa565b9050919050565b600060208201905081810360008301526122f581611fcd565b9050919050565b6000602082019050818103600083015261231581611ff0565b9050919050565b6000602082019050818103600083015261233581612013565b9050919050565b6000602082019050818103600083015261235581612036565b9050919050565b6000602082019050818103600083015261237581612059565b9050919050565b600060208201905081810360008301526123958161207c565b9050919050565b600060208201905081810360008301526123b58161209f565b9050919050565b600060208201905081810360008301526123d5816120c2565b9050919050565b600060208201905081810360008301526123f5816120e5565b9050919050565b6000602082019050818103600083015261241581612108565b9050919050565b600060208201905081810360008301526124358161212b565b9050919050565b6000602082019050612451600083018461214e565b92915050565b6000612461612472565b905061246d82826126c4565b919050565b6000604051905090565b600067ffffffffffffffff8211156124975761249661282b565b5b6124a08261286e565b9050602081019050919050565b600067ffffffffffffffff8211156124c8576124c761282b565b5b6124d18261286e565b9050602081019050919050565b600081519050919050565b600081519050919050565b600082825260208201905092915050565b600082825260208201905092915050565b600081905092915050565b600061252c82612646565b915061253783612646565b9250827fffffffffffffffffffffffffffffffffffffffffffffffffffffffffffffffff0382111561256c5761256b61276f565b5b828201905092915050565b600061258282612646565b915061258d83612646565b92508261259d5761259c61279e565b5b828204905092915050565b60006125b382612646565b91506125be83612646565b9250828210156125d1576125d061276f565b5b828203905092915050565b60006125e782612626565b9050919050565b60008115159050919050565b60007fffffffff0000000000000000000000000000000000000000000000000000000082169050919050565b600073ffffffffffffffffffffffffffffffffffffffff82169050919050565b6000819050919050565b82818337600083830152505050565b60005b8381101561267d578082015181840152602081019050612662565b8381111561268c576000848401525b50505050565b600060028204905060018216806126aa57607f821691505b602082108114156126be576126bd6127cd565b5b50919050565b6126cd8261286e565b810181811067ffffffffffffffff821117156126ec576126eb61282b565b5b80604052505050565b600061270082612646565b91507fffffffffffffffffffffffffffffffffffffffffffffffffffffffffffffffff8214156127335761273261276f565b5b600182019050919050565b600061274982612646565b915061275483612646565b9250826127645761276361279e565b5b828206905092915050565b7f4e487b7100000000000000000000000000000000000000000000000000000000600052601160045260246000fd5b7f4e487b7100000000000000000000000000000000000000000000000000000000600052601260045260246000fd5b7f4e487b7100000000000000000000000000000000000000000000000000000000600052602260045260246000fd5b7f4e487b7100000000000000000000000000000000000000000000000000000000600052603260045260246000fd5b7f4e487b7100000000000000000000000000000000000000000000000000000000600052604160045260246000fd5b600080fd5b600080fd5b600080fd5b600080fd5b6000601f19601f8301169050919050565b7f4552433732313a207472616e7366657220746f206e6f6e20455243373231526560008201527f63656976657220696d706c656d656e7465720000000000000000000000000000602082015250565b7f4f776e61626c653a206e6577206f776e657220697320746865207a65726f206160008201527f6464726573730000000000000000000000000000000000000000000000000000602082015250565b7f4552433732313a20746f6b656e20616c7265616479206d696e74656400000000600082015250565b7f4552433732313a207472616e7366657220746f20746865207a65726f2061646460008201527f7265737300000000000000000000000000000000000000000000000000000000602082015250565b7f4552433732313a20617070726f766520746f2063616c6c657200000000000000600082015250565b7f4552433732313a206f70657261746f7220717565727920666f72206e6f6e657860008201527f697374656e7420746f6b656e0000000000000000000000000000000000000000602082015250565b7f4552433732313a20617070726f76652063616c6c6572206973206e6f74206f7760008201527f6e6572206e6f7220617070726f76656420666f7220616c6c0000000000000000602082015250565b7f4552433732313a2062616c616e636520717565727920666f7220746865207a6560008201527f726f206164647265737300000000000000000000000000000000000000000000602082015250565b7f4552433732313a206f776e657220717565727920666f72206e6f6e657869737460008201527f656e7420746f6b656e0000000000000000000000000000000000000000000000602082015250565b7f4552433732313a206d696e7420746f20746865207a65726f2061646472657373600082015250565b7f4552433732313a20617070726f76656420717565727920666f72206e6f6e657860008201527f697374656e7420746f6b656e0000000000000000000000000000000000000000602082015250565b7f4f776e61626c653a2063616c6c6572206973206e6f7420746865206f776e6572600082015250565b7f4552433732313a207472616e73666572206f6620746f6b656e2074686174206960008201527f73206e6f74206f776e0000000000000000000000000000000000000000000000602082015250565b7f4552433732314d657461646174613a2055524920717565727920666f72206e6f60008201527f6e6578697374656e7420746f6b656e0000000000000000000000000000000000602082015250565b7f4552433732313a20617070726f76616c20746f2063757272656e74206f776e6560008201527f7200000000000000000000000000000000000000000000000000000000000000602082015250565b7f4552433732313a207472616e736665722063616c6c6572206973206e6f74206f60008201527f776e6572206e6f7220617070726f766564000000000000000000000000000000602082015250565b612ce0816125dc565b8114612ceb57600080fd5b50565b612cf7816125ee565b8114612d0257600080fd5b50565b612d0e816125fa565b8114612d1957600080fd5b50565b612d2581612646565b8114612d3057600080fd5b5056fea2646970667358221220956eabc498a63daea0c7d2871ce2eea3e1f6b60c78dd58da4a626bb3038a20d264736f6c63430008060033",
  "immutableReferences": {},
  "source": "// SPDX-License-Identifier: MIT\npragma solidity ^0.8.0;\n\nimport \"@openzeppelin/contracts/token/ERC721/ERC721.sol\";\nimport \"@openzeppelin/contracts/utils/Counters.sol\";\nimport \"@openzeppelin/contracts/access/Ownable.sol\";\n\ncontract Memenifty is ERC721, Ownable {\n\n  using Counters for Counters.Counter;\n  Counters.Counter private _tokenIds;\n  mapping(string => uint8) hashes;\n\n\n  constructor() ERC721(\"Meme\", \"MEME\") {}\n\n    function mintMeme(address _recipient, string memory _hash) external onlyOwner returns (uint256) {\n      require(hashes[_hash] != 1);\n      hashes[_hash] = 1;\n      _tokenIds.increment();\n      uint256 newItemId = _tokenIds.current();\n      _safeMint(_recipient, newItemId);\n      tokenURI(newItemId);\n      return newItemId;\n  }\n\n\n\n\n}\n",
  "sourcePath": "/home/logand/github/memenifty/memenifty-backend-truffle/contracts/Memenifty.sol",
  "compiler": {
    "name": "solc",
    "version": "0.8.6+commit.11564f7e.Emscripten.clang"
  },
  "schemaVersion": "3.4.0",
  "updatedAt": "2021-08-25T02:00:44.015Z",
  "networkType": "ethereum",
  "devdoc": {
    "kind": "dev",
    "methods": {
      "approve(address,uint256)": {
        "details": "See {IERC721-approve}."
      },
      "balanceOf(address)": {
        "details": "See {IERC721-balanceOf}."
      },
      "getApproved(uint256)": {
        "details": "See {IERC721-getApproved}."
      },
      "isApprovedForAll(address,address)": {
        "details": "See {IERC721-isApprovedForAll}."
      },
      "name()": {
        "details": "See {IERC721Metadata-name}."
      },
      "owner()": {
        "details": "Returns the address of the current owner."
      },
      "ownerOf(uint256)": {
        "details": "See {IERC721-ownerOf}."
      },
      "renounceOwnership()": {
        "details": "Leaves the contract without owner. It will not be possible to call `onlyOwner` functions anymore. Can only be called by the current owner. NOTE: Renouncing ownership will leave the contract without an owner, thereby removing any functionality that is only available to the owner."
      },
      "safeTransferFrom(address,address,uint256)": {
        "details": "See {IERC721-safeTransferFrom}."
      },
      "safeTransferFrom(address,address,uint256,bytes)": {
        "details": "See {IERC721-safeTransferFrom}."
      },
      "setApprovalForAll(address,bool)": {
        "details": "See {IERC721-setApprovalForAll}."
      },
      "supportsInterface(bytes4)": {
        "details": "See {IERC165-supportsInterface}."
      },
      "symbol()": {
        "details": "See {IERC721Metadata-symbol}."
      },
      "tokenURI(uint256)": {
        "details": "See {IERC721Metadata-tokenURI}."
      },
      "transferFrom(address,address,uint256)": {
        "details": "See {IERC721-transferFrom}."
      },
      "transferOwnership(address)": {
        "details": "Transfers ownership of the contract to a new account (`newOwner`). Can only be called by the current owner."
      }
    },
    "version": 1
  },
  "userdoc": {
    "kind": "user",
    "methods": {},
    "version": 1
  }
}