{
  "contractName": "Memenifty",
  "abi": [
    {
      "inputs": [],
      "stateMutability": "nonpayable",
      "type": "constructor"
    },
    {
      "anonymous": false,
      "inputs": [
        {
          "indexed": true,
          "internalType": "address",
          "name": "owner",
          "type": "address"
        },
        {
          "indexed": true,
          "internalType": "address",
          "name": "approved",
          "type": "address"
        },
        {
          "indexed": true,
          "internalType": "uint256",
          "name": "tokenId",
          "type": "uint256"
        }
      ],
      "name": "Approval",
      "type": "event"
    },
    {
      "anonymous": false,
      "inputs": [
        {
          "indexed": true,
          "internalType": "address",
          "name": "owner",
          "type": "address"
        },
        {
          "indexed": true,
          "internalType": "address",
          "name": "operator",
          "type": "address"
        },
        {
          "indexed": false,
          "internalType": "bool",
          "name": "approved",
          "type": "bool"
        }
      ],
      "name": "ApprovalForAll",
      "type": "event"
    },
    {
      "anonymous": false,
      "inputs": [
        {
          "indexed": true,
          "internalType": "address",
          "name": "from",
          "type": "address"
        },
        {
          "indexed": true,
          "internalType": "address",
          "name": "to",
          "type": "address"
        },
        {
          "indexed": true,
          "internalType": "uint256",
          "name": "tokenId",
          "type": "uint256"
        }
      ],
      "name": "Transfer",
      "type": "event"
    },
    {
      "inputs": [
        {
          "internalType": "address",
          "name": "to",
          "type": "address"
        },
        {
          "internalType": "uint256",
          "name": "tokenId",
          "type": "uint256"
        }
      ],
      "name": "approve",
      "outputs": [],
      "stateMutability": "nonpayable",
      "type": "function"
    },
    {
      "inputs": [
        {
          "internalType": "address",
          "name": "owner",
          "type": "address"
        }
      ],
      "name": "balanceOf",
      "outputs": [
        {
          "internalType": "uint256",
          "name": "",
          "type": "uint256"
        }
      ],
      "stateMutability": "view",
      "type": "function"
    },
    {
      "inputs": [
        {
          "internalType": "uint256",
          "name": "tokenId",
          "type": "uint256"
        }
      ],
      "name": "getApproved",
      "outputs": [
        {
          "internalType": "address",
          "name": "",
          "type": "address"
        }
      ],
      "stateMutability": "view",
      "type": "function"
    },
    {
      "inputs": [
        {
          "internalType": "address",
          "name": "owner",
          "type": "address"
        },
        {
          "internalType": "address",
          "name": "operator",
          "type": "address"
        }
      ],
      "name": "isApprovedForAll",
      "outputs": [
        {
          "internalType": "bool",
          "name": "",
          "type": "bool"
        }
      ],
      "stateMutability": "view",
      "type": "function"
    },
    {
      "inputs": [],
      "name": "name",
      "outputs": [
        {
          "internalType": "string",
          "name": "",
          "type": "string"
        }
      ],
      "stateMutability": "view",
      "type": "function"
    },
    {
      "inputs": [
        {
          "internalType": "uint256",
          "name": "tokenId",
          "type": "uint256"
        }
      ],
      "name": "ownerOf",
      "outputs": [
        {
          "internalType": "address",
          "name": "",
          "type": "address"
        }
      ],
      "stateMutability": "view",
      "type": "function"
    },
    {
      "inputs": [
        {
          "internalType": "address",
          "name": "from",
          "type": "address"
        },
        {
          "internalType": "address",
          "name": "to",
          "type": "address"
        },
        {
          "internalType": "uint256",
          "name": "tokenId",
          "type": "uint256"
        }
      ],
      "name": "safeTransferFrom",
      "outputs": [],
      "stateMutability": "nonpayable",
      "type": "function"
    },
    {
      "inputs": [
        {
          "internalType": "address",
          "name": "from",
          "type": "address"
        },
        {
          "internalType": "address",
          "name": "to",
          "type": "address"
        },
        {
          "internalType": "uint256",
          "name": "tokenId",
          "type": "uint256"
        },
        {
          "internalType": "bytes",
          "name": "_data",
          "type": "bytes"
        }
      ],
      "name": "safeTransferFrom",
      "outputs": [],
      "stateMutability": "nonpayable",
      "type": "function"
    },
    {
      "inputs": [
        {
          "internalType": "address",
          "name": "operator",
          "type": "address"
        },
        {
          "internalType": "bool",
          "name": "approved",
          "type": "bool"
        }
      ],
      "name": "setApprovalForAll",
      "outputs": [],
      "stateMutability": "nonpayable",
      "type": "function"
    },
    {
      "inputs": [
        {
          "internalType": "bytes4",
          "name": "interfaceId",
          "type": "bytes4"
        }
      ],
      "name": "supportsInterface",
      "outputs": [
        {
          "internalType": "bool",
          "name": "",
          "type": "bool"
        }
      ],
      "stateMutability": "view",
      "type": "function"
    },
    {
      "inputs": [],
      "name": "symbol",
      "outputs": [
        {
          "internalType": "string",
          "name": "",
          "type": "string"
        }
      ],
      "stateMutability": "view",
      "type": "function"
    },
    {
      "inputs": [
        {
          "internalType": "uint256",
          "name": "tokenId",
          "type": "uint256"
        }
      ],
      "name": "tokenURI",
      "outputs": [
        {
          "internalType": "string",
          "name": "",
          "type": "string"
        }
      ],
      "stateMutability": "view",
      "type": "function"
    },
    {
      "inputs": [
        {
          "internalType": "address",
          "name": "from",
          "type": "address"
        },
        {
          "internalType": "address",
          "name": "to",
          "type": "address"
        },
        {
          "internalType": "uint256",
          "name": "tokenId",
          "type": "uint256"
        }
      ],
      "name": "transferFrom",
      "outputs": [],
      "stateMutability": "nonpayable",
      "type": "function"
    },
    {
      "inputs": [
        {
          "internalType": "address",
          "name": "_recipient",
          "type": "address"
        },
        {
          "internalType": "string",
          "name": "_hash",
          "type": "string"
        }
      ],
      "name": "mintMeme",
      "outputs": [
        {
          "internalType": "uint256",
          "name": "",
          "type": "uint256"
        }
      ],
      "stateMutability": "nonpayable",
      "type": "function"
    }
  ],
  "bytecode": "0x60806040523480156200001157600080fd5b506040518060400160405280600a81526020017f4d696e7465644d656d65000000000000000000000000000000000000000000008152506040518060400160405280600481526020017f4d454d4500000000000000000000000000000000000000000000000000000000815250816000908051906020019062000096929190620000b8565b508060019080519060200190620000af929190620000b8565b505050620001cd565b828054620000c69062000168565b90600052602060002090601f016020900481019282620000ea576000855562000136565b82601f106200010557805160ff191683800117855562000136565b8280016001018555821562000136579182015b828111156200013557825182559160200191906001019062000118565b5b50905062000145919062000149565b5090565b5b80821115620001645760008160009055506001016200014a565b5090565b600060028204905060018216806200018157607f821691505b602082108114156200019857620001976200019e565b5b50919050565b7f4e487b7100000000000000000000000000000000000000000000000000000000600052602260045260246000fd5b61291a80620001dd6000396000f3fe608060405234801561001057600080fd5b50600436106100ea5760003560e01c80636352211e1161008c578063a22cb46511610066578063a22cb4651461026f578063b88d4fde1461028b578063c87b56dd146102a7578063e985e9c5146102d7576100ea565b80636352211e146101f157806370a082311461022157806395d89b4114610251576100ea565b8063095ea7b3116100c8578063095ea7b31461016d57806323b872dd1461018957806342842e0e146101a55780635aa9e7bd146101c1576100ea565b806301ffc9a7146100ef57806306fdde031461011f578063081812fc1461013d575b600080fd5b61010960048036038101906101049190611a85565b610307565b6040516101169190611e68565b60405180910390f35b6101276103e9565b6040516101349190611e83565b60405180910390f35b61015760048036038101906101529190611adf565b61047b565b6040516101649190611e01565b60405180910390f35b61018760048036038101906101829190611a45565b610500565b005b6101a3600480360381019061019e91906118d3565b610618565b005b6101bf60048036038101906101ba91906118d3565b610678565b005b6101db60048036038101906101d691906119e9565b610698565b6040516101e89190612065565b60405180910390f35b61020b60048036038101906102069190611adf565b610744565b6040516102189190611e01565b60405180910390f35b61023b60048036038101906102369190611866565b6107f6565b6040516102489190612065565b60405180910390f35b6102596108ae565b6040516102669190611e83565b60405180910390f35b610289600480360381019061028491906119a9565b610940565b005b6102a560048036038101906102a09190611926565b610ac1565b005b6102c160048036038101906102bc9190611adf565b610b23565b6040516102ce9190611e83565b60405180910390f35b6102f160048036038101906102ec9190611893565b610bca565b6040516102fe9190611e68565b60405180910390f35b60007f80ac58cd000000000000000000000000000000000000000000000000000000007bffffffffffffffffffffffffffffffffffffffffffffffffffffffff1916827bffffffffffffffffffffffffffffffffffffffffffffffffffffffff191614806103d257507f5b5e139f000000000000000000000000000000000000000000000000000000007bffffffffffffffffffffffffffffffffffffffffffffffffffffffff1916827bffffffffffffffffffffffffffffffffffffffffffffffffffffffff1916145b806103e257506103e182610c5e565b5b9050919050565b6060600080546103f8906122bb565b80601f0160208091040260200160405190810160405280929190818152602001828054610424906122bb565b80156104715780601f1061044657610100808354040283529160200191610471565b820191906000526020600020905b81548152906001019060200180831161045457829003601f168201915b5050505050905090565b600061048682610cc8565b6104c5576040517f08c379a00000000000000000000000000000000000000000000000000000000081526004016104bc90611fc5565b60405180910390fd5b6004600083815260200190815260200160002060009054906101000a900473ffffffffffffffffffffffffffffffffffffffff169050919050565b600061050b82610744565b90508073ffffffffffffffffffffffffffffffffffffffff168373ffffffffffffffffffffffffffffffffffffffff16141561057c576040517f08c379a000000000000000000000000000000000000000000000000000000000815260040161057390612025565b60405180910390fd5b8073ffffffffffffffffffffffffffffffffffffffff1661059b610d34565b73ffffffffffffffffffffffffffffffffffffffff1614806105ca57506105c9816105c4610d34565b610bca565b5b610609576040517f08c379a000000000000000000000000000000000000000000000000000000000815260040161060090611f45565b60405180910390fd5b6106138383610d3c565b505050565b610629610623610d34565b82610df5565b610668576040517f08c379a000000000000000000000000000000000000000000000000000000000815260040161065f90612045565b60405180910390fd5b610673838383610ed3565b505050565b61069383838360405180602001604052806000815250610ac1565b505050565b600060016007836040516106ac9190611dc6565b908152602001604051809103902060009054906101000a900460ff1660ff1614156106d657600080fd5b60016007836040516106e89190611dc6565b908152602001604051809103902060006101000a81548160ff021916908360ff160217905550610718600661112f565b60006107246006611145565b90506107308482611153565b61073981610b23565b508091505092915050565b6000806002600084815260200190815260200160002060009054906101000a900473ffffffffffffffffffffffffffffffffffffffff169050600073ffffffffffffffffffffffffffffffffffffffff168173ffffffffffffffffffffffffffffffffffffffff1614156107ed576040517f08c379a00000000000000000000000000000000000000000000000000000000081526004016107e490611f85565b60405180910390fd5b80915050919050565b60008073ffffffffffffffffffffffffffffffffffffffff168273ffffffffffffffffffffffffffffffffffffffff161415610867576040517f08c379a000000000000000000000000000000000000000000000000000000000815260040161085e90611f65565b60405180910390fd5b600360008373ffffffffffffffffffffffffffffffffffffffff1673ffffffffffffffffffffffffffffffffffffffff168152602001908152602001600020549050919050565b6060600180546108bd906122bb565b80601f01602080910402602001604051908101604052809291908181526020018280546108e9906122bb565b80156109365780601f1061090b57610100808354040283529160200191610936565b820191906000526020600020905b81548152906001019060200180831161091957829003601f168201915b5050505050905090565b610948610d34565b73ffffffffffffffffffffffffffffffffffffffff168273ffffffffffffffffffffffffffffffffffffffff1614156109b6576040517f08c379a00000000000000000000000000000000000000000000000000000000081526004016109ad90611f05565b60405180910390fd5b80600560006109c3610d34565b73ffffffffffffffffffffffffffffffffffffffff1673ffffffffffffffffffffffffffffffffffffffff16815260200190815260200160002060008473ffffffffffffffffffffffffffffffffffffffff1673ffffffffffffffffffffffffffffffffffffffff16815260200190815260200160002060006101000a81548160ff0219169083151502179055508173ffffffffffffffffffffffffffffffffffffffff16610a70610d34565b73ffffffffffffffffffffffffffffffffffffffff167f17307eab39ab6107e8899845ad3d59bd9653f200f220920489ca2b5937696c3183604051610ab59190611e68565b60405180910390a35050565b610ad2610acc610d34565b83610df5565b610b11576040517f08c379a0000000000000000000000000000000000000000000000000000000008152600401610b0890612045565b60405180910390fd5b610b1d84848484611171565b50505050565b6060610b2e82610cc8565b610b6d576040517f08c379a0000000000000000000000000000000000000000000000000000000008152600401610b6490612005565b60405180910390fd5b6000610b776111cd565b90506000815111610b975760405180602001604052806000815250610bc2565b80610ba1846111e4565b604051602001610bb2929190611ddd565b6040516020818303038152906040525b915050919050565b6000600560008473ffffffffffffffffffffffffffffffffffffffff1673ffffffffffffffffffffffffffffffffffffffff16815260200190815260200160002060008373ffffffffffffffffffffffffffffffffffffffff1673ffffffffffffffffffffffffffffffffffffffff16815260200190815260200160002060009054906101000a900460ff16905092915050565b60007f01ffc9a7000000000000000000000000000000000000000000000000000000007bffffffffffffffffffffffffffffffffffffffffffffffffffffffff1916827bffffffffffffffffffffffffffffffffffffffffffffffffffffffff1916149050919050565b60008073ffffffffffffffffffffffffffffffffffffffff166002600084815260200190815260200160002060009054906101000a900473ffffffffffffffffffffffffffffffffffffffff1673ffffffffffffffffffffffffffffffffffffffff1614159050919050565b600033905090565b816004600083815260200190815260200160002060006101000a81548173ffffffffffffffffffffffffffffffffffffffff021916908373ffffffffffffffffffffffffffffffffffffffff160217905550808273ffffffffffffffffffffffffffffffffffffffff16610daf83610744565b73ffffffffffffffffffffffffffffffffffffffff167f8c5be1e5ebec7d5bd14f71427d1e84f3dd0314c0f7b2291e5b200ac8c7c3b92560405160405180910390a45050565b6000610e0082610cc8565b610e3f576040517f08c379a0000000000000000000000000000000000000000000000000000000008152600401610e3690611f25565b60405180910390fd5b6000610e4a83610744565b90508073ffffffffffffffffffffffffffffffffffffffff168473ffffffffffffffffffffffffffffffffffffffff161480610eb957508373ffffffffffffffffffffffffffffffffffffffff16610ea18461047b565b73ffffffffffffffffffffffffffffffffffffffff16145b80610eca5750610ec98185610bca565b5b91505092915050565b8273ffffffffffffffffffffffffffffffffffffffff16610ef382610744565b73ffffffffffffffffffffffffffffffffffffffff1614610f49576040517f08c379a0000000000000000000000000000000000000000000000000000000008152600401610f4090611fe5565b60405180910390fd5b600073ffffffffffffffffffffffffffffffffffffffff168273ffffffffffffffffffffffffffffffffffffffff161415610fb9576040517f08c379a0000000000000000000000000000000000000000000000000000000008152600401610fb090611ee5565b60405180910390fd5b610fc4838383611345565b610fcf600082610d3c565b6001600360008573ffffffffffffffffffffffffffffffffffffffff1673ffffffffffffffffffffffffffffffffffffffff168152602001908152602001600020600082825461101f91906121d1565b925050819055506001600360008473ffffffffffffffffffffffffffffffffffffffff1673ffffffffffffffffffffffffffffffffffffffff1681526020019081526020016000206000828254611076919061214a565b92505081905550816002600083815260200190815260200160002060006101000a81548173ffffffffffffffffffffffffffffffffffffffff021916908373ffffffffffffffffffffffffffffffffffffffff160217905550808273ffffffffffffffffffffffffffffffffffffffff168473ffffffffffffffffffffffffffffffffffffffff167fddf252ad1be2c89b69c2b068fc378daa952ba7f163c4a11628f55a4df523b3ef60405160405180910390a4505050565b6001816000016000828254019250508190555050565b600081600001549050919050565b61116d82826040518060200160405280600081525061134a565b5050565b61117c848484610ed3565b611188848484846113a5565b6111c7576040517f08c379a00000000000000000000000000000000000000000000000000000000081526004016111be90611ea5565b60405180910390fd5b50505050565b606060405180602001604052806000815250905090565b6060600082141561122c576040518060400160405280600181526020017f30000000000000000000000000000000000000000000000000000000000000008152509050611340565b600082905060005b6000821461125e5780806112479061231e565b915050600a8261125791906121a0565b9150611234565b60008167ffffffffffffffff81111561127a57611279612454565b5b6040519080825280601f01601f1916602001820160405280156112ac5781602001600182028036833780820191505090505b5090505b60008514611339576001826112c591906121d1565b9150600a856112d49190612367565b60306112e0919061214a565b60f81b8183815181106112f6576112f5612425565b5b60200101907effffffffffffffffffffffffffffffffffffffffffffffffffffffffffffff1916908160001a905350600a8561133291906121a0565b94506112b0565b8093505050505b919050565b505050565b611354838361153c565b61136160008484846113a5565b6113a0576040517f08c379a000000000000000000000000000000000000000000000000000000000815260040161139790611ea5565b60405180910390fd5b505050565b60006113c68473ffffffffffffffffffffffffffffffffffffffff1661170a565b1561152f578373ffffffffffffffffffffffffffffffffffffffff1663150b7a026113ef610d34565b8786866040518563ffffffff1660e01b81526004016114119493929190611e1c565b602060405180830381600087803b15801561142b57600080fd5b505af192505050801561145c57506040513d601f19601f820116820180604052508101906114599190611ab2565b60015b6114df573d806000811461148c576040519150601f19603f3d011682016040523d82523d6000602084013e611491565b606091505b506000815114156114d7576040517f08c379a00000000000000000000000000000000000000000000000000000000081526004016114ce90611ea5565b60405180910390fd5b805181602001fd5b63150b7a0260e01b7bffffffffffffffffffffffffffffffffffffffffffffffffffffffff1916817bffffffffffffffffffffffffffffffffffffffffffffffffffffffff191614915050611534565b600190505b949350505050565b600073ffffffffffffffffffffffffffffffffffffffff168273ffffffffffffffffffffffffffffffffffffffff1614156115ac576040517f08c379a00000000000000000000000000000000000000000000000000000000081526004016115a390611fa5565b60405180910390fd5b6115b581610cc8565b156115f5576040517f08c379a00000000000000000000000000000000000000000000000000000000081526004016115ec90611ec5565b60405180910390fd5b61160160008383611345565b6001600360008473ffffffffffffffffffffffffffffffffffffffff1673ffffffffffffffffffffffffffffffffffffffff1681526020019081526020016000206000828254611651919061214a565b92505081905550816002600083815260200190815260200160002060006101000a81548173ffffffffffffffffffffffffffffffffffffffff021916908373ffffffffffffffffffffffffffffffffffffffff160217905550808273ffffffffffffffffffffffffffffffffffffffff16600073ffffffffffffffffffffffffffffffffffffffff167fddf252ad1be2c89b69c2b068fc378daa952ba7f163c4a11628f55a4df523b3ef60405160405180910390a45050565b600080823b905060008111915050919050565b600061173061172b846120a5565b612080565b90508281526020810184848401111561174c5761174b612488565b5b611757848285612279565b509392505050565b600061177261176d846120d6565b612080565b90508281526020810184848401111561178e5761178d612488565b5b611799848285612279565b509392505050565b6000813590506117b081612888565b92915050565b6000813590506117c58161289f565b92915050565b6000813590506117da816128b6565b92915050565b6000815190506117ef816128b6565b92915050565b600082601f83011261180a57611809612483565b5b813561181a84826020860161171d565b91505092915050565b600082601f83011261183857611837612483565b5b813561184884826020860161175f565b91505092915050565b600081359050611860816128cd565b92915050565b60006020828403121561187c5761187b612492565b5b600061188a848285016117a1565b91505092915050565b600080604083850312156118aa576118a9612492565b5b60006118b8858286016117a1565b92505060206118c9858286016117a1565b9150509250929050565b6000806000606084860312156118ec576118eb612492565b5b60006118fa868287016117a1565b935050602061190b868287016117a1565b925050604061191c86828701611851565b9150509250925092565b600080600080608085870312156119405761193f612492565b5b600061194e878288016117a1565b945050602061195f878288016117a1565b935050604061197087828801611851565b925050606085013567ffffffffffffffff8111156119915761199061248d565b5b61199d878288016117f5565b91505092959194509250565b600080604083850312156119c0576119bf612492565b5b60006119ce858286016117a1565b92505060206119df858286016117b6565b9150509250929050565b60008060408385031215611a00576119ff612492565b5b6000611a0e858286016117a1565b925050602083013567ffffffffffffffff811115611a2f57611a2e61248d565b5b611a3b85828601611823565b9150509250929050565b60008060408385031215611a5c57611a5b612492565b5b6000611a6a858286016117a1565b9250506020611a7b85828601611851565b9150509250929050565b600060208284031215611a9b57611a9a612492565b5b6000611aa9848285016117cb565b91505092915050565b600060208284031215611ac857611ac7612492565b5b6000611ad6848285016117e0565b91505092915050565b600060208284031215611af557611af4612492565b5b6000611b0384828501611851565b91505092915050565b611b1581612205565b82525050565b611b2481612217565b82525050565b6000611b3582612107565b611b3f818561211d565b9350611b4f818560208601612288565b611b5881612497565b840191505092915050565b6000611b6e82612112565b611b78818561212e565b9350611b88818560208601612288565b611b9181612497565b840191505092915050565b6000611ba782612112565b611bb1818561213f565b9350611bc1818560208601612288565b80840191505092915050565b6000611bda60328361212e565b9150611be5826124a8565b604082019050919050565b6000611bfd601c8361212e565b9150611c08826124f7565b602082019050919050565b6000611c2060248361212e565b9150611c2b82612520565b604082019050919050565b6000611c4360198361212e565b9150611c4e8261256f565b602082019050919050565b6000611c66602c8361212e565b9150611c7182612598565b604082019050919050565b6000611c8960388361212e565b9150611c94826125e7565b604082019050919050565b6000611cac602a8361212e565b9150611cb782612636565b604082019050919050565b6000611ccf60298361212e565b9150611cda82612685565b604082019050919050565b6000611cf260208361212e565b9150611cfd826126d4565b602082019050919050565b6000611d15602c8361212e565b9150611d20826126fd565b604082019050919050565b6000611d3860298361212e565b9150611d438261274c565b604082019050919050565b6000611d5b602f8361212e565b9150611d668261279b565b604082019050919050565b6000611d7e60218361212e565b9150611d89826127ea565b604082019050919050565b6000611da160318361212e565b9150611dac82612839565b604082019050919050565b611dc08161226f565b82525050565b6000611dd28284611b9c565b915081905092915050565b6000611de98285611b9c565b9150611df58284611b9c565b91508190509392505050565b6000602082019050611e166000830184611b0c565b92915050565b6000608082019050611e316000830187611b0c565b611e3e6020830186611b0c565b611e4b6040830185611db7565b8181036060830152611e5d8184611b2a565b905095945050505050565b6000602082019050611e7d6000830184611b1b565b92915050565b60006020820190508181036000830152611e9d8184611b63565b905092915050565b60006020820190508181036000830152611ebe81611bcd565b9050919050565b60006020820190508181036000830152611ede81611bf0565b9050919050565b60006020820190508181036000830152611efe81611c13565b9050919050565b60006020820190508181036000830152611f1e81611c36565b9050919050565b60006020820190508181036000830152611f3e81611c59565b9050919050565b60006020820190508181036000830152611f5e81611c7c565b9050919050565b60006020820190508181036000830152611f7e81611c9f565b9050919050565b60006020820190508181036000830152611f9e81611cc2565b9050919050565b60006020820190508181036000830152611fbe81611ce5565b9050919050565b60006020820190508181036000830152611fde81611d08565b9050919050565b60006020820190508181036000830152611ffe81611d2b565b9050919050565b6000602082019050818103600083015261201e81611d4e565b9050919050565b6000602082019050818103600083015261203e81611d71565b9050919050565b6000602082019050818103600083015261205e81611d94565b9050919050565b600060208201905061207a6000830184611db7565b92915050565b600061208a61209b565b905061209682826122ed565b919050565b6000604051905090565b600067ffffffffffffffff8211156120c0576120bf612454565b5b6120c982612497565b9050602081019050919050565b600067ffffffffffffffff8211156120f1576120f0612454565b5b6120fa82612497565b9050602081019050919050565b600081519050919050565b600081519050919050565b600082825260208201905092915050565b600082825260208201905092915050565b600081905092915050565b60006121558261226f565b91506121608361226f565b9250827fffffffffffffffffffffffffffffffffffffffffffffffffffffffffffffffff0382111561219557612194612398565b5b828201905092915050565b60006121ab8261226f565b91506121b68361226f565b9250826121c6576121c56123c7565b5b828204905092915050565b60006121dc8261226f565b91506121e78361226f565b9250828210156121fa576121f9612398565b5b828203905092915050565b60006122108261224f565b9050919050565b60008115159050919050565b60007fffffffff0000000000000000000000000000000000000000000000000000000082169050919050565b600073ffffffffffffffffffffffffffffffffffffffff82169050919050565b6000819050919050565b82818337600083830152505050565b60005b838110156122a657808201518184015260208101905061228b565b838111156122b5576000848401525b50505050565b600060028204905060018216806122d357607f821691505b602082108114156122e7576122e66123f6565b5b50919050565b6122f682612497565b810181811067ffffffffffffffff8211171561231557612314612454565b5b80604052505050565b60006123298261226f565b91507fffffffffffffffffffffffffffffffffffffffffffffffffffffffffffffffff82141561235c5761235b612398565b5b600182019050919050565b60006123728261226f565b915061237d8361226f565b92508261238d5761238c6123c7565b5b828206905092915050565b7f4e487b7100000000000000000000000000000000000000000000000000000000600052601160045260246000fd5b7f4e487b7100000000000000000000000000000000000000000000000000000000600052601260045260246000fd5b7f4e487b7100000000000000000000000000000000000000000000000000000000600052602260045260246000fd5b7f4e487b7100000000000000000000000000000000000000000000000000000000600052603260045260246000fd5b7f4e487b7100000000000000000000000000000000000000000000000000000000600052604160045260246000fd5b600080fd5b600080fd5b600080fd5b600080fd5b6000601f19601f8301169050919050565b7f4552433732313a207472616e7366657220746f206e6f6e20455243373231526560008201527f63656976657220696d706c656d656e7465720000000000000000000000000000602082015250565b7f4552433732313a20746f6b656e20616c7265616479206d696e74656400000000600082015250565b7f4552433732313a207472616e7366657220746f20746865207a65726f2061646460008201527f7265737300000000000000000000000000000000000000000000000000000000602082015250565b7f4552433732313a20617070726f766520746f2063616c6c657200000000000000600082015250565b7f4552433732313a206f70657261746f7220717565727920666f72206e6f6e657860008201527f697374656e7420746f6b656e0000000000000000000000000000000000000000602082015250565b7f4552433732313a20617070726f76652063616c6c6572206973206e6f74206f7760008201527f6e6572206e6f7220617070726f76656420666f7220616c6c0000000000000000602082015250565b7f4552433732313a2062616c616e636520717565727920666f7220746865207a6560008201527f726f206164647265737300000000000000000000000000000000000000000000602082015250565b7f4552433732313a206f776e657220717565727920666f72206e6f6e657869737460008201527f656e7420746f6b656e0000000000000000000000000000000000000000000000602082015250565b7f4552433732313a206d696e7420746f20746865207a65726f2061646472657373600082015250565b7f4552433732313a20617070726f76656420717565727920666f72206e6f6e657860008201527f697374656e7420746f6b656e0000000000000000000000000000000000000000602082015250565b7f4552433732313a207472616e73666572206f6620746f6b656e2074686174206960008201527f73206e6f74206f776e0000000000000000000000000000000000000000000000602082015250565b7f4552433732314d657461646174613a2055524920717565727920666f72206e6f60008201527f6e6578697374656e7420746f6b656e0000000000000000000000000000000000602082015250565b7f4552433732313a20617070726f76616c20746f2063757272656e74206f776e6560008201527f7200000000000000000000000000000000000000000000000000000000000000602082015250565b7f4552433732313a207472616e736665722063616c6c6572206973206e6f74206f60008201527f776e6572206e6f7220617070726f766564000000000000000000000000000000602082015250565b61289181612205565b811461289c57600080fd5b50565b6128a881612217565b81146128b357600080fd5b50565b6128bf81612223565b81146128ca57600080fd5b50565b6128d68161226f565b81146128e157600080fd5b5056fea264697066735822122088b4e4d3970da8e51b2096d89803afe190da16ed1116a838ba1252b38d5e33ea64736f6c63430008060033",
  "immutableReferences": {},
  "source": "// SPDX-License-Identifier: MIT\npragma solidity ^0.8.0;\n\nimport \"@openzeppelin/contracts/token/ERC721/ERC721.sol\";\nimport \"@openzeppelin/contracts/utils/Counters.sol\";\n\ncontract Memenifty is ERC721 {\n\n  using Counters for Counters.Counter;\n  Counters.Counter private _tokenIds;\n  mapping(string => uint8) hashes;\n\n  constructor() ERC721(\"MintedMeme\", \"MEME\") {}\n\n    function mintMeme(address _recipient, string memory _hash) public returns (uint256) {\n      require(hashes[_hash] != 1);\n      hashes[_hash] = 1;\n      _tokenIds.increment();\n      uint256 _newItemId = _tokenIds.current();\n      _safeMint(_recipient, _newItemId);\n      tokenURI(_newItemId);\n      return _newItemId;\n  }\n\n\n\n\n}\n",
  "sourcePath": "/home/logand/github/memenifty/memenifty-backend-truffle/contracts/Memenifty.sol",
  "compiler": {
    "name": "solc",
    "version": "0.8.6+commit.11564f7e.Emscripten.clang"
  },
  "schemaVersion": "3.4.0",
  "updatedAt": "2021-07-20T18:33:42.885Z",
  "devdoc": {
    "kind": "dev",
    "methods": {
      "approve(address,uint256)": {
        "details": "See {IERC721-approve}."
      },
      "balanceOf(address)": {
        "details": "See {IERC721-balanceOf}."
      },
      "getApproved(uint256)": {
        "details": "See {IERC721-getApproved}."
      },
      "isApprovedForAll(address,address)": {
        "details": "See {IERC721-isApprovedForAll}."
      },
      "name()": {
        "details": "See {IERC721Metadata-name}."
      },
      "ownerOf(uint256)": {
        "details": "See {IERC721-ownerOf}."
      },
      "safeTransferFrom(address,address,uint256)": {
        "details": "See {IERC721-safeTransferFrom}."
      },
      "safeTransferFrom(address,address,uint256,bytes)": {
        "details": "See {IERC721-safeTransferFrom}."
      },
      "setApprovalForAll(address,bool)": {
        "details": "See {IERC721-setApprovalForAll}."
      },
      "supportsInterface(bytes4)": {
        "details": "See {IERC165-supportsInterface}."
      },
      "symbol()": {
        "details": "See {IERC721Metadata-symbol}."
      },
      "tokenURI(uint256)": {
        "details": "See {IERC721Metadata-tokenURI}."
      },
      "transferFrom(address,address,uint256)": {
        "details": "See {IERC721-transferFrom}."
      }
    },
    "version": 1
  },
  "userdoc": {
    "kind": "user",
    "methods": {},
    "version": 1
  }
}